:020000040800F2
:1000000000A000203983000865340008733400081C
:10001000793400087F3400088534000800000000AF
:100020000000000000000000000000008B34000809
:100030009934000800000000A7340008B534000817
:100040008983000889830008898300088983000860
:100050008983000889830008898300088983000850
:100060008983000889830008898300088983000840
:10007000C1340008D5340008E93400080935000807
:10008000293500084935000889830008898300085C
:100090008983000889830008898300088983000810
:1000A0008983000889830008898300088983000800
:1000B000693500087D3500088983000891350008FE
:1000C00089830008898300088983000889830008E0
:1000D00089830008A535000889830008B935000820
:1000E00089830008898300088983000889830008C0
:1000F00089830008898300088983000889830008B0
:1001000000000000000000000000000089830008DB
:10011000CD35000889830008898300088983000899
:100120008983000889830008E13500088983000875
:10013000F535000889830008000000000000000079
:100140008983000889830008898300080000000073
:10015000000000000000000000000000000000009F
:100160000000000000000000898300088983000867
:10017000898300080000000000000000000000006B
:08018000000000008983000863
:1001900010B5054C237833B9044B13B10448AFF3C1
:1001A00000800123237010BD0C020020000000001D
:1001B00004BD000808B5034B1BB103490348AFF366
:1001C000008008BD000000001002002004BD0008EF
:1001D000034613F8012B002AFBD1181A0138704787
:1001E00001F0FF01102A2BDB10F0070F08D010F8E8
:1001F000013B013A8B422DD010F0070F42B3F6D1EC
:10020000F0B441EA012141EA014122F007047FF004
:1002100000070023F0E80256083C85EA010586EA5B
:10022000010685FA47F5A3FA87F586FA47F6A5FA97
:1002300087F68EB9EED1F0BC01F0FF0102F00702A3
:1002400032B110F8013B013A83EA010313B1F8D14E
:100250000020704701387047002D06BF354603382F
:10026000073815F0010F07D1013015F4807F02BF68
:10027000013015F4C03F0130F0BC0138704700BFB9
:1002800081F0004102E000BF83F0004330B54FEA47
:1002900041044FEA430594EA050F08BF90EA020FB4
:1002A0001FBF54EA000C55EA020C7FEA645C7FEA47
:1002B000655C00F0E2804FEA5454D4EB5555B8BF6A
:1002C0006D420CDD2C4480EA020281EA030382EADB
:1002D000000083EA010180EA020281EA0303362D6D
:1002E00088BF30BD11F0004F4FEA01314FF4801C40
:1002F0004CEA113102D0404261EB410113F0004F52
:100300004FEA03334CEA133302D0524263EB430308
:1003100094EA050F00F0A780A4F10104D5F1200EA6
:100320000DDB02FA0EFC22FA05F2801841F1000101
:1003300003FA0EF2801843FA05F359410EE0A5F1D5
:1003400020050EF1200E012A03FA0EFC28BF4CF006
:10035000020C43FA05F3C01851EBE37101F00045BC
:1003600007D54FF0000EDCF1000C7EEB00006EEBC9
:100370000101B1F5801F1BD3B1F5001F0CD3490853
:100380005FEA30004FEA3C0C04F101044FEA4452AA
:1003900012F5800F80F09A80BCF1004F08BF5FEA31
:1003A000500C50F1000041EB045141EA050130BD11
:1003B0005FEA4C0C404141EB010111F4801FA4F1B4
:1003C0000104E9D191F0000F04BF01460020B1FA09
:1003D00081F308BF2033A3F10B03B3F120020CDA41
:1003E0000C3208DD02F1140CC2F10C0201FA0CF01F
:1003F00021FA02F10CE002F11402D8BFC2F1200C84
:1004000001FA02F120FA0CFCDCBF41EA0C01904039
:10041000E41AA2BF01EB0451294330BD6FEA040482
:100420001F3C1CDA0C340EDC04F11404C4F120026D
:1004300020FA04F001FA02F340EA030021FA04F37F
:1004400045EA030130BDC4F10C04C4F1200220FAD6
:1004500002F001FA04F340EA0300294630BD21FA14
:1004600004F0294630BD94F0000F83F4801306BFDA
:1004700081F480110134013D4EE77FEA645C18BFCE
:100480007FEA655C29D094EA050F08BF90EA020F65
:1004900005D054EA000C04BF1946104630BD91EA5D
:1004A000030F1EBF0021002030BD5FEA545C05D160
:1004B0004000494128BF41F0004130BD14F580049F
:1004C0003CBF01F5801130BD01F0004545F0FE4113
:1004D00041F470014FF0000030BD7FEA645C1ABF48
:1004E000194610467FEA655C1CBF0B46024650EA7F
:1004F000013406BF52EA033591EA030F41F40021AB
:1005000030BD00BF90F0000F04BF0021704730B530
:100510004FF4806404F132044FF000054FF0000105
:1005200050E700BF90F0000F04BF0021704730B5C6
:100530004FF4806404F1320410F0004548BF40429B
:100540004FF000013EE700BF42004FEAE2014FEAF0
:1005500031014FEA02701FBF12F07F4393F07F4FCB
:1005600081F06051704792F0000F14BF93F07F4FFD
:10057000704730B54FF4607401F0004521F0004140
:1005800020E700BF50EA010208BF704730B54FF0C6
:1005900000050AE050EA010208BF704730B511F0CB
:1005A000004502D5404261EB41014FF4806404F103
:1005B00032045FEA915C3FF4DCAE4FF003025FEA85
:1005C000DC0C18BF03325FEADC0C18BF033202EB0D
:1005D000DC02C2F1200300FA03FC20FA02F001FA67
:1005E00003FE40EA0E0021FA02F11444C1E600BF06
:1005F00070B54FF0FF0C4CF4E06C1CEA11541DBFB9
:100600001CEA135594EA0C0F95EA0C0F00F0DEF883
:100610002C4481EA030621EA4C5123EA4C5350EA68
:10062000013518BF52EA033541F4801143F48013B9
:1006300038D0A0FB02CE4FF00005E1FB02E506F04A
:100640000042E0FB03E54FF00006E1FB03569CF09F
:10065000000F18BF4EF0010EA4F1FF04B6F5007FA5
:1006600064F5407404D25FEA4E0E6D4146EB060617
:1006700042EAC62141EA55514FEAC52040EA5E50A0
:100680004FEACE2EB4F1FD0C88BFBCF5E06F1ED84A
:10069000BEF1004F08BF5FEA500E50F1000041EB81
:1006A000045170BD06F0004646EA010140EA02002E
:1006B00081EA0301B4EB5C04C2BFD4EB0C0541EA50
:1006C000045170BD41F480114FF0000E013C00F365
:1006D000AB8014F1360FDEBF002001F0004170BD89
:1006E000C4F10004203C35DA0C341BDC04F11404A2
:1006F000C4F1200500FA05F320FA04F001FA05F22E
:1007000040EA020001F0004221F0004110EBD370FA
:1007100021FA04F642EB06015EEA430E08BF20EA26
:10072000D37070BDC4F10C04C4F1200500FA04F3C9
:1007300020FA05F001FA04F240EA020001F000415B
:1007400010EBD37041F100015EEA430E08BF20EACE
:10075000D37070BDC4F1200500FA05F24EEA020E16
:1007600020FA04F301FA05F243EA020321FA04F045
:1007700001F0004121FA04F220EA020000EBD370FC
:100780005EEA430E08BF20EAD37070BD94F0000FFC
:100790000FD101F00046400041EB010111F4801F30
:1007A00008BF013CF7D041EA060195F0000F18BFE1
:1007B000704703F00046520043EB030313F4801F1D
:1007C00008BF013DF7D043EA0603704794EA0C0FD7
:1007D0000CEA135518BF95EA0C0F0CD050EA4106ED
:1007E00018BF52EA4306D1D181EA030101F000416A
:1007F0004FF0000070BD50EA410606BF1046194692
:1008000052EA430619D094EA0C0F02D150EA01369D
:1008100013D195EA0C0F05D152EA03361CBF1046DE
:1008200019460AD181EA030101F0004141F0FE417D
:1008300041F470014FF0000070BD41F0FE4141F401
:10084000780170BD70B54FF0FF0C4CF4E06C1CEA01
:1008500011541DBF1CEA135594EA0C0F95EA0C0FB6
:1008600000F0A7F8A4EB050481EA030E52EA033571
:100870004FEA013100F088804FEA03334FF0805592
:1008800045EA131343EA12634FEA022245EA1115BF
:1008900045EA10654FEA00260EF000419D4208BF70
:1008A000964244F1FD0404F5407402D25B084FEA1D
:1008B0003202B61A65EB03055B084FEA32024FF4C9
:1008C00080104FF4002CB6EB020E75EB030E22BF26
:1008D000B61A754640EA0C005B084FEA3202B6EBE6
:1008E000020E75EB030E22BFB61A754640EA5C0095
:1008F0005B084FEA3202B6EB020E75EB030E22BF25
:10090000B61A754640EA9C005B084FEA3202B6EB25
:10091000020E75EB030E22BFB61A754640EADC00E4
:1009200055EA060E18D04FEA051545EA16754FEA46
:1009300006164FEAC30343EA52734FEAC2025FEA64
:100940001C1CC0D111F4801F0BD141EA00014FF0F3
:1009500000004FF0004CB6E711F4801F04BF0143C4
:100960000020B4F1FD0C88BFBCF5E06F3FF6AFAEE0
:10097000B5EB030C04BFB6EB020C5FEA500C50F170
:10098000000041EB045170BD0EF0004E4EEA1131F3
:1009900014EB5C04C2BFD4EB0C0541EA045170BDFA
:1009A00041F480114FF0000E013C90E645EA060E3E
:1009B0008DE60CEA135594EA0C0F08BF95EA0C0F6C
:1009C0003FF43BAF94EA0C0F0AD150EA01347FF4B4
:1009D00034AF95EA0C0F7FF425AF104619462CE78B
:1009E00095EA0C0F06D152EA03353FF4FDAE1046EE
:1009F000194622E750EA410618BF52EA43067FF43F
:100A0000C5AE50EA41047FF40DAF52EA43057FF4CE
:100A1000EBAE12E74FF0FF3C06E000BF4FF0010CD9
:100A200002E000BF4FF0010C4DF804CD4FEA410C3D
:100A30007FEA6C5C4FEA430C18BF7FEA6C5C1BD00A
:100A400001B050EA410C0CBF52EA430C91EA030F8B
:100A500002BF90EA020F0020704710F1000F91EAE8
:100A6000030F58BF994208BF90422CBFD8176FEAB6
:100A7000E37040F0010070474FEA410C7FEA6C5C84
:100A800002D150EA013C07D14FEA430C7FEA6C5C8B
:100A9000D6D152EA033CD3D05DF8040B704700BFB7
:100AA0008446104662468C461946634600E000BF05
:100AB00001B5FFF7B7FF002848BF10F1000F01BDD7
:100AC0004DF808EDFFF7F4FF0CBF012000205DF8A2
:100AD00008FB00BF4DF808EDFFF7EAFF34BF012027
:100AE00000205DF808FB00BF4DF808EDFFF7E0FFC0
:100AF00094BF012000205DF808FB00BF4DF808ED11
:100B0000FFF7CEFF94BF012000205DF808FB00BF77
:100B10004DF808EDFFF7C4FF34BF012000205DF859
:100B200008FB00BF4FEA410212F5001215D211D5A1
:100B30006FF47873B3EB625212D94FEAC12343F0DA
:100B4000004343EA505311F0004F23FA02F018BF5C
:100B5000404270474FF00000704750EA013005D125
:100B600011F0004008BF6FF0004070474FF00000E8
:100B7000704700BF4A0011D212F5001211D20DD5F4
:100B80006FF47873B3EB62520ED44FEAC12343F093
:100B9000004343EA505323FA02F070474FF000003D
:100BA000704750EA013002D14FF0FF3070474FF0EC
:100BB000000070474FEA4102B2F1E04324BFB3F5B1
:100BC000001CDCF1FE5C0DD901F0004C4FEAC002C4
:100BD0004CEA5070B2F1004F40EB830008BF20F0A8
:100BE0000100704711F0804F21D113F13872BCBF62
:100BF00001F00040704741F480114FEA5252C2F1B7
:100C00001802C2F1200C10FA0CF320FA02F018BFFF
:100C100040F001004FEAC1234FEAD32303FA0CFC52
:100C200040EA0C0023FA02F34FEA4303CCE77FEAE1
:100C3000625307D150EA01331EBF4FF0FE4040F42B
:100C40004000704701F0004040F0FE4040F40000DA
:100C5000704700BF80B52DED028B84B000AF786087
:100C600039607B6807EE903AB8EEE77A3B6820334C
:100C7000D3ED007A67EE277A9FEDE77A77EE877AF1
:100C8000F0EE000AB0EE670A0AF05EFAB0EE407AC3
:100C9000E24BD3ED007A77EE277AB0EE670A0AF0DE
:100CA000CFFBB0EE408ADFEDDE6A7B6807EE903A5C
:100CB000B8EEE77A3B682033D3ED007A67EE277A07
:100CC00076EEE77AF0EE000AB0EE670A0AF03CFA38
:100CD000B0EE407AD34BD3ED007A37EE277AD24B81
:100CE000D3ED007A77EE277AB0EE670A0AF0A8FB18
:100CF000F0EE407A78EE277AF1EE677ACB4BC3EDCF
:100D0000007A7B6807EE903AB8EEE77A3B682033CA
:100D1000D3ED007A67EE277A9FEDBF7A77EE877A78
:100D2000F0EE000AB0EE670A0AF00EFAB0EE407A72
:100D3000BA4BD3ED007A77EE277AB0EE670A0AF065
:100D40007FFBB0EE408ADFEDBA6A7B6807EE903A2F
:100D5000B8EEE77A3B682033D3ED007A67EE277A66
:100D600076EEE77AF0EE000AB0EE670A0AF0ECF9E8
:100D7000B0EE407AAF4BD3ED007A37EE277AAE4B28
:100D8000D3ED007A77EE277AB0EE670A0AF058FBC7
:100D9000F0EE407A78EE277AF1EE677AA34BC3ED56
:100DA000017A7B6807EE903AB8EEE77A3B68203329
:100DB000D3ED007A67EE277A9FED977A77EE877A00
:100DC000F0EE000AB0EE670A0AF0BEF9B0EE407A23
:100DD000924BD3ED007A77EE277AB0EE670A0AF0ED
:100DE0002FFBB0EE408ADFED8E6A7B6807EE903A0B
:100DF000B8EEE77A3B682033D3ED007A67EE277AC6
:100E000076EEE77AF0EE000AB0EE670A0AF09CF997
:100E1000B0EE407A894BD3ED007A37EE277A884BD3
:100E2000D3ED007A77EE277AB0EE670A0AF008FB76
:100E3000F0EE407A78EE277AF1EE677A7B4BC3EDDD
:100E4000027A7B6807EE903AB8EEE77A3B68203387
:100E5000D3ED007A67EE277A9FED6F7A77EE877A87
:100E6000F0EE000AB0EE670A0AF06EF9B0EE407AD2
:100E70006A4BD3ED007A77EE277AB0EE670A0AF074
:100E8000DFFAB0EE408ADFED6A6A7B6807EE903ADF
:100E9000B8EEE77A3B682033D3ED007A67EE277A25
:100EA00076EEE77AF0EE000AB0EE670A0AF04CF947
:100EB000B0EE407A634BD3ED007A37EE277A624B7F
:100EC000D3ED007A77EE277AB0EE670A0AF0B8FA27
:100ED000F0EE407A78EE277AF1EE677A534BC3ED65
:100EE000037A7B6807EE903AB8EEE77A3B682033E6
:100EF000D3ED007A67EE277A9FED477A77EE877A0F
:100F0000F0EE000AB0EE670A0AF01EF9B0EE407A81
:100F1000424BD3ED007A77EE277AB0EE670A0AF0FB
:100F20008FFAB0EE408ADFED3E6A7B6807EE903ABA
:100F3000B8EEE77A3B682033D3ED007A67EE277A84
:100F400076EEE77AF0EE000AB0EE670A0AF0FCF8F7
:100F5000B0EE407A3D4BD3ED007A37EE277A3C4B2A
:100F6000D3ED007A77EE277AB0EE670A0AF068FAD6
:100F7000F0EE407A78EE277AF1EE677A2B4BC3EDEC
:100F8000047A7B6807EE903AB8EEE77A3B68203344
:100F9000D3ED007A67EE277A9FED1F7A77EE877A96
:100FA000F0EE000AB0EE670A0AF0CEF8B0EE407A32
:100FB0001A4BD3ED007A77EE277AB0EE670A0AF083
:100FC0003FFAB0EE408ADFED1A6A7B6807EE903A8E
:100FD000B8EEE77A3B682033D3ED007A67EE277AE4
:100FE00076EEE77AF0EE000AB0EE670A0AF0ACF8A7
:100FF000B0EE407A174BD3ED007A37EE277A164BD6
:10100000D3ED007A77EE277AB0EE670A0AF018FA85
:10101000F0EE407A22E000BF000020426CBE0008E3
:10102000662628432CBE00084CBE0008780200202B
:10103000CD8C754330BE000850BE000834BE000899
:1010400054BE000838BE000858BE00083CBE000868
:101050005CBE000840BE000860BE000878EE277A3B
:10106000F1EE677AE44BC3ED057A7B6807EE903AC0
:10107000B8EEE77A3B682033D3ED007A67EE277A43
:101080009FEDDE7A77EE877AF0EE000AB0EE670A1F
:101090000AF05AF8B0EE407AD94BD3ED007A77EEE9
:1010A000277AB0EE670A0AF0CBF9B0EE408ADFED9E
:1010B000D56A7B6807EE903AB8EEE77A3B68203352
:1010C000D3ED007A67EE277A76EEE77AF0EE000A43
:1010D000B0EE670A0AF038F8B0EE407ACA4BD3EDAA
:1010E000007A37EE277AC94BD3ED007A77EE277A6C
:1010F000B0EE670A0AF0A4F9F0EE407A78EE277AAB
:10110000F1EE677ABC4BC3ED067A7B6807EE903A46
:10111000B8EEE77A3B682033D3ED007A67EE277AA2
:101120009FEDB67A77EE877AF0EE000AB0EE670AA6
:101130000AF00AF8B0EE407AB14BD3ED007A77EEC0
:10114000277AB0EE670A0AF07BF9B0EE408ADFED4D
:10115000B06A7B6807EE903AB8EEE77A3B682033D6
:10116000D3ED007A67EE277A76EEE77AF0EE000AA2
:10117000B0EE670A09F0E8FFB0EE407AA54BD3ED78
:10118000007A37EE277AA44BD3ED007A77EE277AF0
:10119000B0EE670A0AF054F9F0EE407A78EE277A5A
:1011A000F1EE677A944BC3ED077A7B6807EE903ACD
:1011B000B8EEE77A3B682033D3ED007A67EE277A02
:1011C0009FED8E7A37EE877A944BD3ED087A77EEDF
:1011D000277AF0EE000AB0EE670A09F0B5FFB0EE2C
:1011E000407A874BD3ED007A77EE277AB0EE670A24
:1011F0000AF026F9B0EE408ADFED826A7B6807EEDE
:10120000903AB8EEE77A3B682033D3ED007A67EE88
:10121000277A36EEE77A814BD3ED087A77EE677A54
:10122000F0EE000AB0EE670A09F08EFFB0EE407AE9
:101230007B4BD3ED007A37EE277A7A4BD3ED007AE9
:1012400077EE277AB0EE670A0AF0FAF8F0EE407A05
:1012500078EE277AF1EE677A734BC3ED007A7B68FC
:1012600007EE903AB8EEE77A3B682033D3ED007A88
:1012700067EE277A9FED617A37EE877A674BD3ED79
:10128000087A77EE277AF0EE000AB0EE670A09F0E6
:101290005BFFB0EE407A5A4BD3ED007A77EE277AB7
:1012A000B0EE670A0AF0CCF8B0EE408ADFED586A7B
:1012B0007B6807EE903AB8EEE77A3B682033D3EDCF
:1012C000007A67EE277A36EEE77A544BD3ED087A48
:1012D00077EE677AF0EE000AB0EE670A09F034FFA5
:1012E000B0EE407A514BD3ED007A37EE277A504B6F
:1012F000D3ED007A77EE277AB0EE670A0AF0A0F80D
:10130000F0EE407A78EE277AF1EE677A464BC3ED3D
:10131000017A7B6807EE903AB8EEE77A3B682033B3
:10132000D3ED007A67EE277A9FED347A37EE877A2D
:101330003A4BD3ED087A77EE277AF0EE000AB0EE5A
:10134000670A09F001FFB0EE407A2D4BD3ED007A29
:1013500077EE277AB0EE670A0AF072F8B0EE408AAC
:10136000DFED286A7B6807EE903AB8EEE77A3B68D3
:101370002033D3ED007A67EE277A36EEE77A274BF3
:10138000D3ED087A77EE677AF0EE000AB0EE670ADE
:1013900009F0DAFEB0EE407A264BD3ED007A37EE54
:1013A000277A254BD3ED007A77EE277AB0EE670ADD
:1013B0000AF046F8F0EE407A78EE277AF1EE677A96
:1013C000194BC3ED027A7B6807EE903AB8EEE77AE4
:1013D0003B682033D3ED007A67EE277A9FED077ADA
:1013E00037EE877A0D4BD3ED087A77EE277AF0EE59
:1013F000000AB0EE670A21E07802002000002042D7
:101400006CBE00086626284344BE000864BE00087F
:10141000CD8C754348BE000868BE000898020020C5
:101420002CBE00084CBE00083402002030BE00086C
:1014300050BE000834BE000854BE000809F084FE07
:10144000B0EE407AD44BD3ED007A77EE277AB0EE47
:10145000670A09F0F5FFB0EE408ADFEDD06A7B68DD
:1014600007EE903AB8EEE77A3B682033D3ED007A86
:1014700067EE277A36EEE77AC94BD3ED087A77EE36
:10148000677AF0EE000AB0EE670A09F05DFEB0EE92
:10149000407AC44BD3ED007A37EE277AC24BD3EDB6
:1014A000007A77EE277AB0EE670A09F0C9FFF0EE0E
:1014B000407A78EE277AF1EE677ABC4BC3ED037A77
:1014C0007B6807EE903AB8EEE77A3B682033D3EDBD
:1014D000007A67EE277A9FEDB67A37EE877AB04BBF
:1014E000D3ED087A77EE277AF0EE000AB0EE670ABD
:1014F00009F02AFEB0EE407AA74BD3ED007A77EEE2
:10150000277AB0EE670A09F09BFFB0EE408ADFED64
:10151000A96A7B6807EE903AB8EEE77A3B68203319
:10152000D3ED007A67EE277A36EEE77A9C4BD3ED5F
:10153000087A77EE677AF0EE000AB0EE670A09F0F3
:1015400003FEB0EE407A9C4BD3ED007A37EE277A5B
:101550009A4BD3ED007A77EE277AB0EE670A09F05E
:101560006FFFF0EE407A78EE277AF1EE677A8F4BD4
:10157000C3ED047A7B6807EE903AB8EEE77A3B68F1
:101580002033D3ED007A67EE277A9FED897A37EE24
:10159000877A834BD3ED087A77EE277AF0EE000A4C
:1015A000B0EE670A09F0D0FDB0EE407A7A4BD3ED89
:1015B000007A77EE277AB0EE670A09F041FFB0EEC5
:1015C000408ADFED766A7B6807EE903AB8EEE77AFC
:1015D0003B682033D3ED007A67EE277A36EEE77A60
:1015E0006F4BD3ED087A77EE677AF0EE000AB0EE33
:1015F000670A09F0A9FDB0EE407A714BD3ED007A8D
:1016000037EE277A6F4BD3ED007A77EE277AB0EE7C
:10161000670A09F015FFF0EE407A78EE277AF1EECE
:10162000677A624BC3ED057A7B6807EE903AB8EEB5
:10163000E77A3B682033D3ED007A67EE277A9FED97
:101640005C7A37EE877A564BD3ED087A77EE277AB5
:10165000F0EE000AB0EE670A09F076FDB0EE407ACF
:101660004D4BD3ED007A77EE277AB0EE670A09F09A
:10167000E7FEB0EE408ADFED4F6A7B6807EE903AF6
:10168000B8EEE77A3B682033D3ED007A67EE277A2D
:1016900036EEE77A424BD3ED087A77EE677AF0EED2
:1016A000000AB0EE670A09F04FFDB0EE407A464BF3
:1016B000D3ED007A37EE277A444BD3ED007A77EEFC
:1016C000277AB0EE670A09F0BBFEF0EE407A78EEBA
:1016D000277AF1EE677A354BC3ED067A7B6807EE21
:1016E000903AB8EEE77A3B682033D3ED007A67EEA4
:1016F000277A9FED2F7A37EE877A294BD3ED087A38
:1017000077EE277AF0EE000AB0EE670A09F01CFDCA
:10171000B0EE407A204BD3ED007A77EE277AB0EE28
:10172000670A09F08DFEB0EE408ADFED1C6A7B6827
:1017300007EE903AB8EEE77A3B682033D3ED007AB3
:1017400067EE277A36EEE77A154BD3ED087A77EE17
:10175000677AF0EE000AB0EE670A09F0F5FCB0EE29
:10176000407A1B4BD3ED007A37EE277A194BD3ED35
:10177000007A77EE277AB0EE670A09F061FEF0EEA4
:10178000407A78EE277AF1EE677A084BC3ED077A54
:101790000023FB6037E000BF6CBE0008CD8C7543B2
:1017A0009802002038BE000858BE0008340200200D
:1017B00000002042662628433CBE00085CBE0008AC
:1017C00040BE000860BE000844BE000864BE0008B9
:1017D00048BE000868BE00080F4AFB689B0013441F
:1017E00093ED007A0D4AFB689B001344D3ED007A19
:1017F00077EE677A0A4AFB689B001344C3ED007AD0
:10180000FB680133FB60FB68072BE5DD00BF103789
:10181000BD46BDEC028B80BD340200207802002062
:10182000BC020020F0B587B000AFF860B9607A6004
:1018300000237B6119E07B699B00BA68134493ED38
:10184000007A7B699B00FA6813441B6807EE903AA4
:10185000F8EEE77A67EE277A284A7B699B00134403
:10186000C3ED007A7B6901337B617B69082BE2DD84
:10187000B9687868FFF7EEF900233B6136E03B6911
:101880009B00FA68D4183B699B00FA6813441B68F4
:101890001846FEF747FE05460E46194A3B699B006F
:1018A000134493ED007A3B699B00BA681344D3ED6F
:1018B000007AC7EE276A16EE900AFEF745FE02464A
:1018C0000B4643EC102B09F0F9FB53EC102B284688
:1018D0003146FEF7DBFC02460B4610461946FFF781
:1018E00021F9034623603B6901333B613B69072BC8
:1018F000C5DD00BF1C37BD46F0BD00BF980200200B
:10190000BC02002000000000B0B584B000AF7860D9
:1019100039603B689B007A6813441B681846FEF7E1
:1019200001FE15A3D3E90023FEF762FE03460C4631
:1019300025461C467B6820331B681846FEF7F2FDDF
:1019400002460B4620462946FEF77CFF03460C461E
:1019500018462146FFF72EF907EE900AF0EEE77AD7
:10196000C7ED037AFB6807EE903AB0EE670A1037CE
:10197000BD46B0BDAFF300800000000000605140E4
:1019800090B58BB000AFF860B9607A6000237B62DD
:1019900008E007F110027B6A134400221A707B6A88
:1019A00001337B627B6A092BF3DD7A68BB68D31A4B
:1019B000092B43DC00233B6239E0BA683B6A1344DD
:1019C0001A46FB6813441B782F3B002B09DDBA68CD
:1019D0003B6A13441A46FB6813441B782F3B0A2BBF
:1019E00011DDBA683B6A13441A46FB6813441B783E
:1019F0002E2B08D0BA683B6A13441A46FB6813447E
:101A00001B782D2B10D1BA683B6A13441A46FB6829
:101A10001344197807F110023B6A13440A461A70FE
:101A20003B6A01333B6202E04FF0000325E07A6835
:101A3000BB68D21A3B6A9A42BFDC10E04FF0FF331A
:101A400001221149114805F0D1FC4FF0FF330F225C
:101A50000F49104805F0CAFC4FF000030DE007F1F4
:101A60001003184606F091FC54EC103B1846214632
:101A7000FFF7A0F80346FB61FB6907EE903AB0EE72
:101A8000670A2C37BD4690BD20BD00087C080020A9
:101A900024BD0008FC08002090B589B000AFF860B4
:101AA000B9607A603B60BB68FA6813441B78632BAB
:101AB0000DD0BB680133FA6813441B781A463B6BA0
:101AC0001344313B3B63BB680333BB6002E0BB683C
:101AD0000233BB60BB68FB6102E0FB690133FB6161
:101AE000FB69FA6813441B78202B03D0FA697B68E2
:101AF0009A42F2DBFA69B968F868FFF741FF87EDAF
:101B0000060A1F4A3B6B9B001344D3ED007A97ED06
:101B1000067AC7EE276A16EE900AFEF715FD034611
:101B20000C4644EC103B09F0C9FA54EC103B184643
:101B30002146FEF7F7FF03467B613B6B082B12DC67
:101B40007B69104A93420EDB7B690F4A93420ADCA1
:101B50003B6B9B003A6813447A691A60FB69013356
:101B6000BB60BB6808E04FF0FF330122074908481B
:101B700005F03CFC40F2E73318462437BD4690BDE3
:101B8000000000206179FEFF9F86010020BD000853
:101B90007C08002080B58AB002AFF860B9607A6036
:101BA0000023FB832EE0FB8BFA6813441B786C2B1D
:101BB0000FD0722B02D0632B16D01FE0F98B0023BD
:101BC00000937B68BA68F868FFF766FF0346FB83FB
:101BD00018E0F98B042300937B68BA68F868FFF774
:101BE0005BFF0346FB830DE0F98B082300937B68C2
:101BF000BA68F868FFF750FF0346FB83FB8B01339D
:101C0000FB8300BFFA8BBB689A42CCDB7B68203336
:101C10001B68002B2ED0082000F098FD03461A46C2
:101C200020497868FFF7FEFD0023BB611FE0BB6918
:101C30009B007A6813441B68002B15D0B96978683B
:101C4000FFF762FE87ED040AD7ED047AB2EE087A58
:101C5000F4EEC77AF1EE10FA06D5BB69DBB297ED68
:101C6000040A184600F098FDBB690133BB61BB69EB
:101C7000072BDCDD786800F05BFD00237B6109E069
:101C80007B69DBB29FED080A184600F085FD7B6991
:101C900001337B617B69072BF2DD00BF2037BD4636
:101CA00080BD00BF0000002000009640F0B593B05A
:101CB00008AFF8600B467A607B81FB684D221A7092
:101CC00000237B627B6803F1040E7B6808333B6072
:101CD0007A680C3279681031786814307C6818346E
:101CE0007D681C357E6820367B6824330793069612
:101CF000059504940390029101923B68009373460A
:101D00007A684449F86806F099FB00233B620AE0D0
:101D10003B6A9B007A6813441B687A6A13447B62AF
:101D20003B6A01333B623B6A082BF1DD7B6824335D
:101D30001A687B6A9A4262D10023FB6113E0FB6957
:101D40009B007A68D418FB699B007A6813441D686D
:101D5000FB69DBB2184600F0F9FC0346EB1A23607E
:101D6000FB690133FB61FB69082BE8DD7B682033ED
:101D70001B68002B25D00023BB611FE0BB699B00C3
:101D80007A6813441B68002B15D0B9697868FFF78F
:101D9000BBFD87ED040AD7ED047AB2EE087AF4EEC3
:101DA000C77AF1EE10FA06D5BB69DBB297ED040AEB
:101DB000184600F0F1FCBB690133BB61BB69072B1E
:101DC000DCDD786800F0B4FC00237B610CE07B690B
:101DD00007EE903AF8EEE77AB0EE670A062000F0D8
:101DE000DBFC7B6901337B617B69072BEFDD4FF007
:101DF000FF3301220849094805F0F8FA06E04FF0E0
:101E0000FF3301220649054805F0F0FA00BF2C37E0
:101E1000BD46F0BD34BD000860BD00087C08002050
:101E200020BD0008F0B591B008AFF8600B467A60AD
:101E30007B817B6803F1040E7B6808333B607A6822
:101E40000C3279681031786814307C6818347D68F9
:101E50001C357E6820367B682433079306960595EB
:101E600004940390029101923B68009373467A6850
:101E70002649F86806F0E2FA0023FB610023BB6103
:101E80000AE0BB699B007A6813441B68FA69134433
:101E9000FB61BB690133BB61BB69082BF1DD7B686A
:101EA00024331A68FB699A4224D100237B6113E032
:101EB0007B699B007A68D4187B699B007A6813441D
:101EC0001D687B69DBB2184600F040FC0346EB1A44
:101ED00023607B6901337B617B69082BE8DD7868CF
:101EE00000F026FC4FF0FF3301220949094805F0B4
:101EF0007DFA06E04FF0FF3301220749054805F05F
:101F000075FA00BF2437BD46F0BD00BF64BD0008B0
:101F100060BD00087C08002020BD000890B589B095
:101F200000AFF8600B467A607B81FB681B78572B0B
:101F30000ED14FF0FF331A224449454805F056FAB6
:101F40004FF0FF3319224349434805F04FFA78E038
:101F5000FB681B782F2B03D0FB681B784D2B06D119
:101F60007B897A681946F868FFF7A0FE69E0FB688C
:101F70001B78482B06D17B897A681946F868FFF7E9
:101F800051FF5EE0FB681B78422B18D10023FB61F8
:101F90000EE0FB699B007A68D418FB69DBB2184637
:101FA00000F0D4FB03465B422360FB690133FB6115
:101FB000FB69082BEDDD786800F0BAFB41E0FB68B7
:101FC0001B785A2B22D17B89042B0FD80023BB61AD
:101FD00008E0BB69DBB20021184600F0C9FBBB6911
:101FE0000133BB61BB69072BF3DD2AE000237B6172
:101FF00008E07B69DBB20021184600F0B9FB7B6981
:1020000001337B617B69082BF3DD1AE0FB681B78E9
:10201000722B07D0FB681B786C2B03D0FB681B78F6
:10202000632B06D17B897A681946F868FFF7B2FD01
:1020300007E04FF0FF3301220849054805F0D6F9C3
:10204000FFE700BF2437BD4690BD00BF90BD00082C
:102050007C080020ACBD0008FC08002020BD000862
:1020600080B582B000AF03460A46FB711346BB71D0
:10207000FB79082B5AD801A252F823F0A1200008BE
:10208000AF200008BF200008CD200008DB2000089A
:10209000EB200008FD2000080F2100081D2100088A
:1020A000BB791A464021244802F050FB3FE0BB793F
:1020B0001A464FF40041214802F048FB37E0BB7953
:1020C0001A4604211E4802F041FB30E0BB791A4653
:1020D0008021194802F03AFB29E0BB791A464FF4F7
:1020E0008061174802F032FB21E0BB791A464FF4B9
:1020F00080614FF0904002F029FB18E0BB791A464E
:102100004FF400714FF0904002F020FB0FE0BB79DC
:102110001A4601210A4802F019FB08E0BB791A4669
:102120004FF40041044802F011FB00E000BF00BF83
:102130000837BD4680BD00BF0008004800040048C5
:10214000000C004880B483B000AF78600B467B8001
:102150007A887B689A6100BF0C37BD465DF8047BC6
:10216000704780B483B000AF78600B467B807A887C
:102170007B689A6200BF0C37BD465DF8047B7047F0
:1021800080B584B000AF78600023FB732CE0FB7B4C
:10219000FA7B3F4951F82210FA7B9200786802449A
:1021A00012680A443A4941F82320FB7B9B007A6875
:1021B00013441B68002B0ADAFA7B36491346DB000E
:1021C0009B1A9B000B441833FF221A7009E0FA7B1C
:1021D00030491346DB009B1A9B000B441833012245
:1021E0001A70FB7B0133FB732B4B1B78FA7B9A42F3
:1021F000CDD30023BB7318E0BA7B26491346DB001E
:102200009B1A9B000B4417331B78012B0AD1BB7B15
:102210009B007A681344BA7B920079680A4412687A
:1022200052421A60BB7B0133BB731B4B1B78BA7BDA
:102230009A42E1D300237B7321E07B7B9B007A6889
:1022400013441B68002B12DA7B7B9B007A681344D3
:102250007A7B920079680A441268002AB8BF524219
:102260001A607B7B01211846FFF7FAFE04E07B7BB6
:1022700000211846FFF7F4FE7B7B01337B73064B8E
:102280001B787A7B9A42D8D300BF1037BD4680BDF9
:1022900030040020540400202400002080B586B0C3
:1022A00000AF78604FF0804300225A6200237B61C8
:1022B0004FF080435B6A3233FB600023FB7410E015
:1022C000FB7C7049FA6841F82320FB7C9B007A680C
:1022D00013441B681A467B6913447B61FB7C013302
:1022E000FB74FB7C082BEBD9C3E04FF080435B6AA7
:1022F000FB600023BB7472E0BB7C624A52F823206F
:10230000FB689A4268D8BB7C9B007A6813441B68C0
:10231000002B61DDBB7C5C4AD35C002B29D1BA7CED
:102320005A491346DB009B1A9B000B441868BA7C81
:1023300056491346DB009B1A9B000B4404331B8851
:102340001946FFF7FFFEBB7CBA7C4F498A5CD2433B
:10235000D1B24D4AD154BB7CBA7C4A4951F82210C3
:10236000BA7C4B4850F822200A44464941F82320C1
:1023700032E0BA7C45491346DB009B1A9B000B44B4
:102380001868BA7C41491346DB009B1A9B000B443A
:1023900004331B881946FFF7E4FEBB7CBA7C3A493C
:1023A0008A5CD243D1B2384AD154BB7CBA7C35491D
:1023B00051F82210BA7C364850F822200A4431499C
:1023C00041F82320BB7C9B007A6813441A68013AC9
:1023D0001A607B69013B7B61BB7C0133BB742D4B75
:1023E0001B78BA7C9A4287D300F0A0FF0346002BEB
:1023F00004D100F0D7FF0346002B3AD000237B74B2
:1024000032E07A7C21491346DB009B1A9B000B4487
:1024100018331B78012B0ED17B7C7A7C1E4951F836
:1024200022107A7C92007868024412688A1A1A494B
:1024300041F823200DE07B7C7A7C174951F822106B
:102440007A7C92007868024412680A44124941F882
:1024500023207B7C9B007A68134400221A600023AF
:102460007B617B7C01337B740A4B1B787A7C9A42BC
:10247000C7D37B69002B7FF438AF00BF1837BD4648
:1024800080BD00BF8C030020DC020020540400202B
:10249000E8020020240000203004002080B483B033
:1024A00000AF0023FB7134E0FA7998491346DB0052
:1024B0009B1A9B000B44163310221A70FB79944A26
:1024C0004FF47A5142F82310FB79924A0021D154FB
:1024D000FA798E491346DB009B1A9B000B44173395
:1024E00000221A70FA7989491346DB009B1A9B0077
:1024F0000B44183300221A70FB79874A002142F8F6
:102500002310FB79854A002142F82310FB7901331F
:10251000FB71FB79082BC7D97C4B012283F84F2034
:102520007A4B012283F86B20784B012283F88720B5
:10253000764B012283F8A320744B012283F8F72005
:10254000724B774A1A60714B4FF400429A806F4B7E
:10255000734ADA616D4B4FF400721A846B4B704A08
:102560009A636A4B10229A87684B6D4A5A65674B8B
:102570004FF48042A3F85820644B694A1A67634BB2
:102580004FF48072A3F87420604B4FF09042C3F870
:102590008C205E4B4FF48072A3F890205B4B614A15
:1025A000C3F8A820594B4FF40072A3F8AC20574B46
:1025B0005C4AC3F8C420554B4FF48052A3F8C8209E
:1025C000524B594AC3F8E020504B0222A3F8E420B2
:1025D0004E4B544A9A604D4B514A1A614B4B534AE9
:1025E0005A624A4B4E4ADA62484B4D4A1A64474B8C
:1025F0004B4A9A64454B4B4ADA65444B484A5A6603
:10260000424B474A9A67414B484AC3F880203F4BA8
:102610004FF09042C3F894203C4B424AC3F89C20B0
:102620003A4B4FF09042C3F8B020384B4FF09042F5
:10263000C3F8B820354B3A4AC3F8CC20334B4FF09F
:102640009042C3F8D420314B364AC3F8E8202F4BD0
:10265000354AC3F8F0202D4B40229A812B4B4FF482
:1026600000529A82294B4FF400421A85274B4FF4AF
:1026700000621A86254B0422A3F84420234B4022F3
:10268000A3F84C20214B8022A3F860201F4B4FF46D
:102690008052A3F868201D4B4FF48062A3F87C2081
:1026A0001A4B4FF48042A3F88420184B4FF48062F9
:1026B000A3F89820154B4FF48072A3F8A020134B79
:1026C0004FF40072A3F8B420104B4FF40062A3F84B
:1026D000BC200E4B0122A3F8D0200C4B4FF400423B
:1026E000A3F8D820094B4FF40042A3F8EC20074B85
:1026F0004FF48062A3F8F420054B4FF486621A620F
:1027000000BF0C37BD465DF8047B704754040020C1
:10271000E8020020DC0200208C03002030040020AE
:10272000000C00480008004800140048000400485D
:1027300080B582B000AF78607868FFF721FD7868D7
:10274000FFF7ACFD00BF0837BD4680BD80B483B045
:1027500000AF0346FB71FB79044A52F82330184658
:102760000C37BD465DF8047B704700BF3004002085
:1027700080B483B000AF03463960FB71FB79054933
:102780003A6841F8232000BF0C37BD465DF8047B52
:10279000704700BF3004002090B583B000AF0346FF
:1027A00087ED000AFB71FC79FA7921491346DB00B9
:1027B0009B1A9B000B4416331B7807EE903AB8EE39
:1027C000E77AD7ED007A67EE277A17EE900AFDF7E1
:1027D000BBFE02460B4614A1D1E90001FEF732F818
:1027E00002460B46104619464FF00002114BFDF70A
:1027F000FFFE02460B4643EC172BB0EE470AF0EE05
:10280000670A08F05BFC53EC102B10461946FEF7E4
:10281000B1F90246084B43F8242000BF0C37BD46EF
:1028200090BD00BFAFF3008000000000804F024168
:102830005404002000002040E802002080B582B04F
:1028400000AF2E4A2D4B5B6943F0010353612B4BC4
:102850005B6903F001037B607B68284A274B5B6957
:1028600043F002035361254B5B6903F002033B60B5
:102870003B68002200210C2001F0C7FB0C2001F076
:10288000E0FB002200210D2001F0BFFB0D2001F034
:10289000D8FB002200210E2001F0B7FB0E2001F032
:1028A000D0FB002200210F2001F0AFFB0F2001F030
:1028B000C8FB00220021102001F0A7FB102001F02E
:1028C000C0FB00220021112001F09FFB112001F02C
:1028D000B8FB002200213A2001F097FB3A2001F0DA
:1028E000B0FB002200213C2001F08FFB3C2001F0D6
:1028F000A8FB00BF0837BD4680BD00BF00100240E6
:1029000080B58AB004AF7860A023BB8200237B82AD
:102910000023FB752AE0FB7D9BB29B007B8207F1C5
:102920000C03FA7D920079680A4412681A607A8A68
:10293000B98A4FF0FF3302930423019307F10C038C
:10294000009301230D4801F0C1FFB98A4FF0FF3316
:1029500001220A4802F0E8F903467B747B7C002BD5
:1029600000D0F2E700BFFB7D0133FB75FB7D082B38
:10297000D1D900BF1837BD4680BD00BF94050020E7
:1029800080B58AB004AF78600023FB752FE0A023E8
:10299000BB82FB7D9BB29B007B827A8AB98A4FF017
:1029A000FF3302930423019307F10C0300930123E7
:1029B000124802F09FF8B98A4FF0FF3301220F4806
:1029C00002F0B2F903467B747B7C002B00D0F2E767
:1029D00000BFFB7D9B007A68134407F10C0212686C
:1029E0001A607B8A04337B82FB7D0133FB75FB7DA0
:1029F000082BCCD900BF1837BD4680BD94050020F8
:102A000080B58CB000AF07F11C0300221A605A6039
:102A10009A60DA601A61724A714B5B6943F4001381
:102A200053616F4B5B6903F40013BB61BB696C4A74
:102A30006B4B5B6943F400235361694B5B6903F49F
:102A400000237B617B69664A654B5B6943F48003C5
:102A50005361634B5B6903F480033B613B69604AEC
:102A60005F4B5B6943F4003353615D4B5B6903F477
:102A70000033FB60FB685A4A594B5B6943F480237F
:102A80005361574B5B6903F48023BB60BB68544AB6
:102A9000534B5B6943F480135361514B5B6903F4FF
:102AA00080137B607B6800224FF608714D4801F06F
:102AB0004DFE002249F2C0314B4801F047FE002292
:102AC00040F20241494801F041FE00224FF44041EA
:102AD000474801F03BFE00224FF65571454801F092
:102AE00035FE00224FF40F414FF0904001F02EFED2
:102AF0003723FB61404B3B6200237B6207F11C03E1
:102B00001946384801F0A8FC4FF60873FB61012311
:102B10003B6200237B620023BB6207F11C03194662
:102B2000304801F099FC49F2C033FB6101233B625C
:102B300000237B620023BB6207F11C0319462A486D
:102B400001F08AFC40F20243FB6101233B62002357
:102B50007B620023BB6207F11C031946234801F086
:102B60007BFC0123FB6100233B6200237B6207F1B6
:102B70001C0319464FF0904001F06EFC4FF44043A7
:102B8000FB6101233B6200237B620023BB6207F1F0
:102B90001C031946164801F05FFC4FF65573FB61A4
:102BA00001233B6201237B620023BB6207F11C030C
:102BB0001946104801F050FC4FF40F43FB6101230C
:102BC0003B6200237B620023BB6207F11C031946B2
:102BD0004FF0904001F040FC00BF3037BD4680BD53
:102BE000001002400010004800080048001400488F
:102BF00000040048000C00480000121080B500AF2F
:102C00001B4B1C4A1A601A4B1B4A5A60184B002275
:102C10009A60174B0122DA60154B00221A61144B9F
:102C200000225A61124B00229A61114B0022DA6194
:102C30000F4B00221A620E4801F0BAFD0346002B2A
:102C400001D000F06BFB0021094802F0A9FB03460C
:102C5000002B01D000F062FB0021054802F0EBFBE5
:102C60000346002B01D000F059FB00BF80BD00BF20
:102C700094050020005400400E09002080B58AB061
:102C800000AF786007F1140300221A605A609A605E
:102C9000DA601A617B681B68414A93427BD1414AE2
:102CA000404B5B6943F4802353613E4B5B6903F403
:102CB00080233B613B69C0237B611223BB610123FD
:102CC000FB6100233B6204237B6207F11403194676
:102CD000354801F0C1FB334A324BDB6943F4001342
:102CE000D361304BDB6903F40013FB60FB682F4BAF
:102CF0002F4A1A602D4B00225A602C4B00229A60FA
:102D00002A4B8022DA60294B00221A61274B0022CD
:102D10005A61264B00229A61244B0022DA61234833
:102D200001F0A9F90346002B01D000F0F7FA7B6807
:102D30001E4ADA631D4A7B6853621E4B1E4A1A60A4
:102D40001C4B10225A601B4B00229A60194B8022A8
:102D5000DA60184B00221A61164B00225A61154B9B
:102D600000229A61134B0022DA61124801F083F9C4
:102D70000346002B01D000F0D1FA7B680D4A9A631C
:102D80000C4A7B685362002200211F2001F03DF9AC
:102D90001F2001F056F900BF2837BD4680BD00BF97
:102DA000005400400010024000040048E0050020EC
:102DB00080000240500500206C000240F0B5B9B020
:102DC00008AF0346FB730023C7F8BC3013E0D7F805
:102DD000BC30DBB21846FFF7B9FC0246D7F8BC306E
:102DE0009B0007F1C0010B4443F8302CD7F8BC30EE
:102DF0000133C7F8BC30D7F8BC30082BE7DDD7F873
:102E00009030BB60D7F894107960D7F89830D7F835
:102E10009C20D7F8A010D7F8A400D7F8A840D7F87E
:102E2000AC50D7F8B06007F1100E069605950494E3
:102E300003900291019200937B68BA68164970462C
:102E400005F0D8FAC7F8B8004FF080435B6A03F585
:102E50009C338033C7F8B43000BFD7F8B8309AB28B
:102E600007F1100319460D4804F054FB0346002BEC
:102E700006D04FF080435A6AD7F8B4309A42ECD368
:102E8000FB7B012B04D107F190031846FFF738FDB7
:102E900000BFC437BD46F0BDC8BD0008FC08002017
:102EA00090B585B000AF7860396000F03FFA034616
:102EB000002B00F09E800023FB60FB687A68D4182A
:102EC00000F04AFA034623700123FB604FF0804371
:102ED00000225A624FF080435B6A03F59C338033D3
:102EE000BB6026E07B681B78722B0FD07B681B7859
:102EF0006C2B0BD07B681B78632B07D07B681B780F
:102F00005A2B03D07B681B78422B0DD10A2000F08E
:102F100081FF09E0FB687A68D41800F01DFA0346C7
:102F20002370FB680133FB6000F000FA0346002BBE
:102F3000F0D1FB68013B7A6813441B785C2B05D009
:102F40004FF080435A6ABB689A42CBD34FF080431C
:102F50005A6ABB689A4222D97B681B78722B1ED0B2
:102F60007B681B786C2B1AD07B681B78632B16D080
:102F70007B681B785A2B12D07B681B78422B0ED0B3
:102F80004FF0FF3301221D491D4804F02FFA4FF086
:102F9000FF330F221B491C4804F028FA29E07B6804
:102FA0001B78482B13D0FB687A6813440D221A70E3
:102FB000FB6801337A6813440A221A70FB689BB2DB
:102FC00002339BB21A4679680F4804F0A3FAFB68F3
:102FD0009BB23A6819467868FEF7A0FF7B681B78B9
:102FE000482B03D10020FFF7E9FE02E00120FFF7A4
:102FF000E5FE00BF1437BD4690BD00BFF4BD00081C
:103000007C080020F8BD0008FC08002090B585B0C1
:1030100000AF7860396000F0C5F90346002B00F07E
:1030200097800023FB60FB687A68D41800F0D0F921
:10303000034623700123FB604FF0804300225A6255
:103040004FF080435B6A03F59C338033BB602BE019
:103050007B681B78722B0FD07B681B786C2B0BD096
:103060007B681B78632B07D07B681B785A2B03D0B7
:103070007B681B78422B12D10A2000F0CBFE0EE0B9
:10308000FB687F2B01DD0023FB60FB687A68D418A6
:1030900000F09EF903462370FB680133FB6000F0EB
:1030A00081F90346002BEBD1FB68013B7A6813449E
:1030B0001B785C2B05D04FF080435A6ABB689A425C
:1030C000C6D34FF080435A6ABB689A4222D97B68C4
:1030D0001B78722B1ED07B681B786C2B1AD07B68F8
:1030E0001B78632B16D07B681B785A2B12D07B6819
:1030F0001B78422B0ED04FF0FF33012216491748A0
:1031000004F074F94FF0FF330F221549154804F00D
:103110006DF91DE0FB687A6813440D221A70FB6894
:1031200001337A6813440A221A70FB689BB2023397
:103130009BB21A4679680B4804F0ECF9FB689BB225
:103140003A6819467868FEF7E9FE0120FFF736FE77
:1031500000BF1437BD4690BDF4BD00087C080020B8
:10316000F8BD0008FC08002080B58AB000AF3B46DF
:103170001846FFF705FC00237B620FE07B6ADAB29A
:103180007B6A9B0007F128010B4453F8283C194641
:103190001046FFF7EDFA7B6A01337B627B6A082BEE
:1031A000ECDD00BF2837BD4680BD000080B5AAB069
:1031B00000AF00F0C9FD00F04FF8FFF721FCFFF76A
:1031C0003DFB00F097FA00F0A1FBFFF717FD00F0C0
:1031D000CDFB00F0DDFA00F069FB194803F092FC2A
:1031E000174803F0B9FC80221649174804F00EFA7C
:1031F00080221649164804F009FAFFF74FF9FFF745
:10320000B3FF3B4628220021184605F0EBF84FF0AB
:10321000FF3315220F490E4804F0E8F80020FFF7AD
:10322000CDFD3A4607F1280311461846FFF7EEFE9A
:103230003A4607F1280311461846FFF731FEF0E73A
:10324000680600200C0300207C080020B00300204A
:10325000FC08002008BE000880B59EB000AF07F152
:10326000500328220021184605F0BCF807F13C0362
:1032700000221A605A609A60DA601A613B463C226A
:103280000021184605F0AEF803233B654FF4A02358
:103290007B650023BB6501233B6610237B6602230D
:1032A000FB664FF480333B674FF4E0137B6707F115
:1032B0005003184602F00CF90346002B01D000F031
:1032C0002DF80F23FB6302233B6400237B644FF440
:1032D0008063BB640023FB6407F13C0302211846B2
:1032E00002F0FEFF0346002B01D000F017F82D235B
:1032F0003B600123BB6000233B6100237B61002313
:10330000FB613B46184603F021FA0346002B01D02F
:1033100000F004F800BF7837BD4680BD80B400AF30
:1033200000BFBD465DF8047B7047000080B400AF6D
:10333000074B1B881A46074B5B689A4201D0FF2354
:1033400000E000231846BD465DF8047B704700BFCF
:10335000260000205800024080B400AF0E4B1B88AE
:10336000C3F180030D4AD25C0D4B1A700A4B1B88C7
:10337000012B06D9084B1B88013B9AB2064B1A80D9
:1033800002E0054B80221A80054B1B781846BD468B
:103390005DF8047B704700BF260000200C0300206E
:1033A0002406002080B400AF074B1B881A46074B49
:1033B0005B689A4201D0FF2300E000231846BD4617
:1033C0005DF8047B704700BF2800002030040240F5
:1033D00080B400AF0E4B1B88C3F180030D4AD25C52
:1033E0000D4B1A700A4B1B88012B06D9084B1B8802
:1033F000013B9AB2064B1A8002E0054B80221A80EC
:10340000054B1B781846BD465DF8047B704700BF2E
:1034100028000020B00300202406002080B483B0E0
:1034200000AF0F4A0E4B9B6943F0010393610C4BB5
:103430009B6903F001037B607B68094A084BDB69E9
:1034400043F08053D361064BDB6903F080533B604C
:103450003B6800BF0C37BD465DF8047B704700BF7A
:103460000010024080B400AF00BFBD465DF8047B91
:10347000704780B400AFFEE780B400AFFEE780B4D1
:1034800000AFFEE780B400AFFEE780B400AF00BF3E
:10349000BD465DF8047B704780B400AF00BFBD46F9
:1034A0005DF8047B704780B400AF00BFBD465DF897
:1034B000047B704780B500AF00F08CFC00BF80BD7E
:1034C00080B500AF024800F0BAFE00BF80BD00BF6B
:1034D000B007002080B500AF024800F0B0FE00BF8A
:1034E00080BD00BFEC06002080B500AF044800F0AE
:1034F000A6FE4FF40071034801F040F900BF80BD03
:10350000F40700200010004880B500AF044800F028
:1035100096FE4FF48061034801F030F900BF80BD92
:10352000380800200010004880B500AF044800F0C3
:1035300086FE4FF40061034801F020F900BF80BD12
:10354000500500200010004880B500AF044800F08E
:1035500076FE4FF48051034801F010F900BF80BDA2
:10356000E00500200010004880B500AF024803F0DD
:103570001DFB00BF80BD00BF6806002080B500AF06
:10358000024803F013FB00BF80BD00BF28060020E7
:1035900080B500AF024801F0CEFC00BF80BD00BF87
:1035A0009405002080B500AF024804F0B3F800BFD6
:1035B00080BD00BF7C08002080B500AF024804F049
:1035C000A9F800BF80BD00BF3007002080B500AF64
:1035D000024804F09FF800BF80BD00BFFC08002037
:1035E00080B500AF024800F02AFE00BF80BD00BFDA
:1035F000A806002080B500AF024800F020FE00BF02
:1036000080BD00BF7C09002080B584B000AF786029
:10361000114B1B68002B02D10F4B104A1A600E4B46
:103620001B68FB600C4B1A687B6813446A46934224
:1036300007D904F0ADFE02460C2313604FF0FF33B0
:1036400006E0054B1A687B681344034A1360FB6865
:1036500018461037BD4680BD28020020C80900204A
:1036600080B400AF1F4A1F4BD3F8883043F4700377
:10367000C2F888301C4A1C4B1B6843F001031360DE
:103680001949194B5A68194B13404B60164A164B8F
:103690001B6823F0847323F480331360124A124BA7
:1036A0001B6823F4802313600F4A0F4B5B6823F4DD
:1036B000FE0353600C4A0C4BDB6A23F00F03D3620A
:1036C0000949094B1A6B0A4B13400B63064B002246
:1036D0009A60044B4FF000629A6000BFBD465DF8EF
:1036E000047B704700ED00E0001002400CC07FF842
:1036F000CCFC00FF80B588B000AF07F110030022BA
:103700001A605A609A60DA603B1D00221A605A60A3
:103710009A601E4B4FF080421A601C4B08225A6080
:103720001A4B00229A60194B4FF0FF32DA60174BA8
:1037300000221A61154B00229A61144803F0B6F971
:103740000346002B01D0FFF7E9FD4FF480533B61A6
:1037500007F1100319460D4803F047FB0346002B01
:1037600001D0FFF7DBFD00237B600023FB603B1DE6
:103770001946064803F04EFD0346002B01D0FFF723
:10378000CDFD00BF2037BD4680BD00BF68060020CC
:1037900080B588B000AF07F1100300221A605A60AC
:1037A0009A60DA603B1D00221A605A609A601D4BD5
:1037B0001D4A1A601B4B47225A601A4B00229A601E
:1037C000184B41F28732DA60164B00221A61154B12
:1037D00000229A61134803F069F90346002B01D0D7
:1037E000FFF79CFD4FF480533B6107F1100319462E
:1037F0000C4803F0FAFA0346002B01D0FFF78EFDC8
:1038000000237B600023FB603B1D1946054803F045
:1038100001FD0346002B01D0FFF780FD00BF2037DC
:10382000BD4680BD280600200004004080B584B05D
:1038300000AF78607B681B68B3F1804F14D1194AE0
:10384000184BDB6943F00103D361164BDB6903F0CE
:103850000103FB60FB68002200211C2000F0D5FB67
:103860001C2000F0EEFB18E07B681B680E4A9342B8
:1038700013D10C4A0B4BDB6943F00203D361094BB4
:10388000DB6903F00203BB60BB68002200211D203E
:1038900000F0BBFB1D2000F0D4FB00BF1037BD467D
:1038A00080BD00BF001002400004004080B500AFA2
:1038B000134B144A1A60124B134A5A60104B0022E1
:1038C0009A600F4B0022DA600D4B00221A610C4BFC
:1038D0000C225A610A4B00229A61094B0022DA61DC
:1038E000074B00221A62064B00225A62044803F07A
:1038F0002FFD0346002B01D0FFF710FD00BF80BD58
:10390000FC080020004C004040420F0080B500AF92
:10391000134B144A1A60124B134A5A60104B002280
:103920009A600F4B0022DA600D4B00221A610C4B9B
:103930000C225A610A4B00229A61094B0022DA617B
:10394000074B00221A62064B00225A62044803F019
:10395000FFFC0346002B01D0FFF7E0FC00BF80BD59
:103960007C0800200038014040420F0080B500AFC5
:10397000134B144A1A60124B134A5A60104B002220
:103980009A600F4B0022DA600D4B00221A610C4B3B
:103990000C225A610A4B00229A61094B0022DA611B
:1039A000074B00221A62064B00225A62044803F0B9
:1039B000CFFC0346002B01D0FFF7B0FC00BF80BD59
:1039C000300700200048004040420F0080B58EB014
:1039D00000AF786007F1240300221A605A609A60F1
:1039E000DA601A617B681B68814A93427DD1814A03
:1039F000804BDB6943F40023D3617E4BDB6903F426
:103A000000233B623B6A7B4A7A4B5B6943F40023A9
:103A10005361784B5B6903F40023FB61FB694FF44E
:103A200040637B620223BB620023FB6203233B6390
:103A300005237B6307F1240319466F4800F00CFD52
:103A40006E4B6F4A1A606D4B00225A606B4B00221E
:103A50009A606A4B8022DA60684B00221A61674BD9
:103A600000225A61654B20229A61644B0022DA6180
:103A7000624800F000FB0346002B01D0FFF74EFC2C
:103A80007B685E4ADA665D4A7B6853625D4B5E4ADC
:103A90001A605C4B10225A605A4B00229A60594BB4
:103AA0008022DA60574B00221A61564B00225A617D
:103AB000544B00229A61534B0022DA61514800F0C6
:103AC000DAFA0346002B01D0FFF728FC7B684D4A49
:103AD0009A664C4A7B68536200220021342000F031
:103AE00094FA342000F0ADFA1CE17B681B68474A69
:103AF000934240F095803F4A3E4B9B6943F480439C
:103B000093613C4B9B6903F48043BB61BB69394AB9
:103B1000384B5B6943F400235361364B5B6903F414
:103B200000237B617B6930237B620223BB6200231D
:103B3000FB6203233B6307237B6307F124031946DE
:103B40002D4800F089FC324B324A1A60304B10226B
:103B50005A602F4B00229A602D4B8022DA602C4B4A
:103B600000221A612A4B00225A61294B00229A61D5
:103B7000274B0022DA61264800F07DFA0346002B2D
:103B800001D0FFF7CBFB7B68214A9A66204A7B680D
:103B90005362214B214A1A601F4B00225A601E4B70
:103BA00000229A601C4B8022DA601B4B00221A61B3
:103BB000194B00225A61184B20229A61164B0022A1
:103BC000DA61154800F057FA0346002B01D0FFF7E1
:103BD000A5FB7B68104ADA660F4A7B6853620022B5
:103BE0000021252000F011FA252000F02AFA99E0A2
:103BF000004C00400010024000080048A8060020C9
:103C0000300402407C090020580402400038014082
:103C1000F407002044000240380800205800024009
:103C20007B681B68414A93427CD1414A404BDB6927
:103C300043F48023D3613E4BDB6903F480233B6173
:103C40003B693B4A3A4B5B6943F480235361384BF1
:103C50005B6903F48023FB60FB684FF440637B6285
:103C60000223BB620023FB6203233B6307237B63C6
:103C700007F1240319462F4800F0EEFB2E4B2F4A84
:103C80001A602D4B00225A602B4B00229A602A4B5F
:103C90008022DA60284B00221A61274B00225A61E9
:103CA000254B20229A61244B0022DA61224800F041
:103CB000E2F90346002B01D0FFF730FB7B681E4A78
:103CC000DA661D4A7B6853621D4B1E4A1A601C4B04
:103CD00010225A601A4B00229A60194B8022DA6037
:103CE000174B00221A61164B00225A61144B002216
:103CF0009A61134B0022DA61114800F0BCF90346C7
:103D0000002B01D0FFF70AFB7B680D4A9A660C4A2C
:103D10007B68536200220021272000F076F92720DB
:103D200000F08FF900BF3837BD4680BD0048004025
:103D30000010024000040048EC0600203000024061
:103D4000B00700201C00024080B500AF084A084BB5
:103D50001B6843F010031360032000F04BF90020B0
:103D600000F008F8FFF75AFB0023184680BD00BF9B
:103D70000020024080B582B000AF7860124B1A6814
:103D8000124B1B7819464FF47A73B3FBF1F3B2FB75
:103D9000F3F3184600F063F90346002B01D001232A
:103DA0000EE07B680F2B0AD8002279684FF0FF30B5
:103DB00000F02BF9064A7B681360002300E0012322
:103DC00018460837BD4680BD2C0000203400002076
:103DD0003000002080B400AF064B1B781A46064B1B
:103DE0001B681344044A136000BFBD465DF8047BA2
:103DF000704700BF34000020C009002080B400AF2D
:103E0000034B1B681846BD465DF8047B704700BF36
:103E1000C009002080B584B000AF7860FFF7EEFFE6
:103E2000B8607B68FB60FB68B3F1FF3F05D0094BCE
:103E30001B781A46FB681344FB6000BFFFF7DEFFE8
:103E40000246BB68D21AFB689A42F7D300BF10370C
:103E5000BD4680BD3400002080B485B000AF7860DE
:103E60007B6803F00703FB600C4BDB68BB60BA6840
:103E70004FF6FF031340BB60FB681A02BB68134395
:103E800043F0BF6343F40033BB60044ABB68D360B4
:103E900000BF1437BD465DF8047B704700ED00E0BD
:103EA00080B400AF044BDB681B0A03F0070318461D
:103EB000BD465DF8047B704700ED00E080B483B040
:103EC00000AF0346FB7197F90730002B0BDB094964
:103ED00097F907305B09FA7902F01F02012000FA16
:103EE00002F241F8232000BF0C37BD465DF8047B89
:103EF000704700BF00E100E080B483B000AF03462C
:103F00003960FB7197F90730002B0ADB0D4997F9EF
:103F100007303A68D2B21201D2B20B4483F80023C0
:103F20000AE00949FB7903F00F03043B3A68D2B277
:103F30001201D2B20B441A7600BF0C37BD465DF8B1
:103F4000047B704700E100E000ED00E080B489B040
:103F500000AFF860B9607A60FB6803F00703FB61AB
:103F6000FB69C3F10703042B28BF0423BB61FB6972
:103F70000433062B02D9FB69033B00E000237B617D
:103F80000122BB6902FA03F35A1EBB681A407B691F
:103F90009A4001217B6901FA03F3591E7B680B40AB
:103FA000134318462437BD465DF8047B7047000074
:103FB00080B582B000AF78607B68013BB3F1807F51
:103FC00001D301230FE00A4A7B68013B53600F21B4
:103FD0004FF0FF30FFF790FF054B00229A60044B33
:103FE00007221A60002318460837BD4680BD00BF6F
:103FF00010E000E080B582B000AF78607868FFF72D
:104000002BFF00BF0837BD4680BD80B586B000AF2E
:104010000346B9607A60FB7300237B61FFF740FFC2
:1040200078617A68B9687869FFF790FF024697F976
:104030000F3011461846FFF75FFF00BF1837BD4627
:1040400080BD80B582B000AF0346FB7197F90730A1
:104050001846FFF733FF00BF0837BD4680BD80B567
:1040600082B000AF78607868FFF7A2FF0346184679
:104070000837BD4680BD80B584B000AF78600023AE
:10408000FB607B68002B01D1012337E07B680222B3
:1040900083F821207B681B681B68FB60FB6823F4A6
:1040A0007F5323F03003FB607B685A687B689B6812
:1040B0001A437B68DB681A437B681B691A437B6879
:1040C0005B691A437B689B691A437B68DB6913430E
:1040D000FA681343FB607B681B68FA681A607868AB
:1040E00000F07EF97B6800229A637B68012283F8E6
:1040F00021207B68002283F82020002318461037F7
:10410000BD4680BD80B586B000AFF860B9607A600A
:104110003B600023FB75FB6893F82030012B01D135
:1041200002234AE0FB68012283F82020FB6893F811
:104130002130012B3AD1FB68022283F82120FB6851
:1041400000229A63FB681B68FA681268126822F002
:1041500001021A603B687A68B968F86800F012F9E1
:10416000FB68DB6A002B08D0FB681B68FA681268E2
:10417000126842F00E021A600FE0FB681B68FA68D2
:104180001268126842F00A021A60FB681B68FA683B
:104190001268126822F004021A60FB681B68FA6851
:1041A0001268126842F001021A6005E0FB68002202
:1041B00083F820200223FB75FB7D18461837BD4687
:1041C00080BD80B584B000AF78600023FB737B684E
:1041D00093F82130022B05D07B6804229A630123D7
:1041E000FB7327E07B681B687A681268126822F00C
:1041F0000E021A607B681B687A681268126822F0E7
:1042000001021A607B68DB6B7A68126C012101FA8B
:1042100002F25A607B68012283F821207B68002229
:1042200083F820207B685B6B002B03D07B685B6B83
:1042300078689847FB7B18461037BD4680BD80B52F
:1042400084B000AF78607B68DB6B1B68FB607B68C9
:104250001B681B68BB607B681B6C04229A40FB6870
:104260001340002B24D0BB6803F00403002B1FD0A5
:104270007B681B681B6803F02003002B07D17B6859
:104280001B687A681268126822F004021A607B6860
:10429000DB6B7A68126C042101FA02F25A607B68C7
:1042A000DB6A002B6AD07B68DB6A7868984765E038
:1042B0007B681B6C02229A40FB681340002B2CD0B9
:1042C000BB6803F00203002B27D07B681B681B68C8
:1042D00003F02003002B0BD17B681B687A681268FF
:1042E000126822F00A021A607B68012283F82120FA
:1042F0007B68DB6B7A68126C022101FA02F25A6069
:104300007B68002283F820207B689B6A002B35D0D5
:104310007B689B6A7868984730E07B681B6C082252
:104320009A40FB681340002B28D0BB6803F00803B9
:10433000002B23D07B681B687A681268126822F011
:104340000E021A607B68DB6B7A68126C012101FA3D
:1043500002F25A607B6801229A637B68012283F82B
:1043600021207B68002283F820207B681B6B002BB8
:1043700004D07B681B6B78689847FFE700BF103755
:10438000BD4680BD80B485B000AFF860B9607A608A
:104390003B60FB68DB6BFA68126C012101FA02F2E8
:1043A0005A60FB681B683A685A60FB685B68102BB0
:1043B00008D1FB681B687A689A60FB681B68BA685A
:1043C000DA6007E0FB681B68BA689A60FB681B68E4
:1043D0007A68DA6000BF1437BD465DF8047B704729
:1043E00080B483B000AF78607B681B681A46144BBA
:1043F0009A420FD87B681B681A46124B1344124A24
:10440000A2FB03231B099A007B681A647B680F4A8E
:10441000DA630EE07B681B681A460D4B13440A4AA8
:10442000A2FB03231B099A007B681A647B68094A74
:10443000DA6300BF0C37BD465DF8047B704700BFF0
:1044400007040240F8FFFDBFCDCCCCCC00000240F9
:10445000F8FBFDBF0004024080B487B000AF786075
:10446000396000237B6154E13B681A6801217B6954
:1044700001FA03F31340FB60FB68002B00F0468158
:104480003B685B68022B03D03B685B68122B23D12F
:104490007B69DA087B68083253F822303B617B691C
:1044A00003F007039B000F2202FA03F3DB433A6990
:1044B00013403B613B681A697B6903F007039B006B
:1044C00002FA03F33A6913433B617B69DA087B68BC
:1044D0000832396943F822107B681B683B617B69AD
:1044E0005B00032202FA03F3DB433A6913403B61AA
:1044F0003B685B6803F003027B695B0002FA03F32D
:104500003A6913433B617B683A691A603B685B68B0
:10451000012B0BD03B685B68022B07D03B685B68C4
:10452000112B03D03B685B68122B30D17B689B68F2
:104530003B617B695B00032202FA03F3DB433A69C8
:1045400013403B613B68DA687B695B0002FA03F366
:104550003A6913433B617B683A699A607B685B68A0
:104560003B6101227B6902FA03F3DB433A691340A2
:104570003B613B685B681B0903F001027B6902FA3F
:1045800003F33A6913433B617B683A695A607B687D
:10459000DB683B617B695B00032202FA03F3DB43C8
:1045A0003A6913403B613B689A687B695B0002FA99
:1045B00003F33A6913433B617B683A69DA603B680D
:1045C0005B6803F08053002B00F0A080584A584BE2
:1045D0009B6943F001039361554B9B6903F0010311
:1045E000BB60BB68534A7B699B08023352F8233097
:1045F0003B617B6903F003039B000F2202FA03F384
:10460000DB433A6913403B617B68B3F1904F19D0AB
:104610007B68494A934213D07B68484A93420DD045
:104620007B68474A934207D07B68464A934201D150
:10463000042308E0052306E0032304E0022302E04C
:10464000012300E000237A6902F003029200934004
:104650003A6913433B6137497B699B0802333A69E6
:1046600041F82320384B1B683B61FB68DB433A6908
:1046700013403B613B685B6803F48033002B03D03D
:104680003A69FB6813433B612F4A3B6913602E4B29
:104690005B683B61FB68DB433A6913403B613B6805
:1046A0005B6803F40033002B03D03A69FB681343C3
:1046B0003B61254A3B695360234B9B683B61FB6828
:1046C000DB433A6913403B613B685B6803F480134A
:1046D000002B03D03A69FB6813433B611A4A3B69DC
:1046E0009360194BDB683B61FB68DB433A6913401D
:1046F0003B613B685B6803F40013002B03D03A690D
:10470000FB6813433B61104A3B69D3607B6901330B
:104710007B613B681A687B6922FA03F3002B7FF404
:10472000A3AE00BF1C37BD465DF8047B704700BFD9
:10473000001002400000014000040048000800484A
:10474000000C0048001000480004014080B483B011
:1047500000AF78600B467B8013467B707B78002B24
:1047600003D07A887B689A6102E07A887B689A62D3
:1047700000BF0C37BD465DF8047B704780B483B042
:1047800000AF78600B467B807B685A697B8813405A
:10479000002B04D07B881A047B689A6102E07A8837
:1047A0007B689A6100BF0C37BD465DF8047B70479B
:1047B00080B582B000AF78607B68002B01D1012307
:1047C00080E07B6893F84130DBB2002B06D17B6838
:1047D000002283F840207868FEF750FA7B68242294
:1047E00083F841207B681B687A681268126822F09F
:1047F00001021A607B681B687A68526822F0706256
:104800001A617B681B687A681268926822F4004219
:104810009A607B68DB68012B07D17B681B687A682C
:10482000926842F400429A6006E07B681B687A68EE
:10483000926842F404429A607B68DB68022B04D1E0
:104840007B681B684FF400625A607B681A687B685B
:104850001B685B6843F0007343F4004353607B685C
:104860001B687A681268D26822F40042DA607B68BA
:104870001B687A6811697A68526911437A6892698B
:1048800012020A43DA607B681B687A68D1697A6829
:10489000126A0A431A607B681B687A681268126899
:1048A00042F001021A607B6800225A647B68202271
:1048B00083F841207B6800221A637B68002283F81A
:1048C0004220002318460837BD4680BD80B588B019
:1048D00002AFF860084611461A4603467B810B4634
:1048E0003B811346FB80FB6893F84130DBB2202B01
:1048F00040F0F9803B6A002B02D0BB8C002B05D125
:10490000FB684FF400725A640123EDE0FB6893F8F2
:104910004030012B01D10223E6E0FB68012283F83D
:104920004020FFF76BFA78617B690093192301221D
:104930004FF40041F86800F0E5FB0346002B01D07E
:104940000123D1E0FB68212283F84120FB6840224B
:1049500083F84220FB6800225A64FB683A6A5A6274
:10496000FB68BA8C5A85FB6800225A63F8883A893A
:1049700079897B690193BB6A00930346F86800F06C
:10498000F5FA0346002B05D0FB68002283F840208F
:104990000123A9E0FB685B8D9BB2FF2B0ED9FB685E
:1049A000FF221A85FB681B8DDAB2798900230093F8
:1049B0004FF08073F86800F0C7FC0FE0FB685B8D78
:1049C0009AB2FB681A85FB681B8DDAB279890023DD
:1049D00000934FF00073F86800F0B6FC7A69B96A8A
:1049E000F86800F0CFFB0346002B01D001237BE0E9
:1049F000FB681B68FA68526A12789A62FB685B6A05
:104A00005A1CFB685A62FB685B8D9BB2013B9AB2F1
:104A1000FB685A85FB681B8D013B9AB2FB681A85BF
:104A2000FB685B8D9BB2002B34D0FB681B8D002B89
:104A300030D17B690093BB6A00228021F86800F0C6
:104A400061FB0346002B01D001234DE0FB685B8D29
:104A50009BB2FF2B0ED9FB68FF221A85FB681B8DCA
:104A6000DAB27989002300934FF08073F86800F080
:104A70006BFC0FE0FB685B8D9AB2FB681A85FB68E4
:104A80001B8DDAB27989002300934FF00073F86828
:104A900000F05AFCFB685B8D9BB2002B9ED17A69BB
:104AA000B96AF86800F0AEFB0346002B01D0012381
:104AB0001AE0FB681B682022DA61FB681A68FB6851
:104AC0001B6859680A4B0B405360FB68202283F82F
:104AD0004120FB68002283F84220FB68002283F813
:104AE0004020002300E0022318461837BD4680BD51
:104AF00000E800FE80B588B002AFF86008461146B5
:104B00001A4603467B810B463B811346FB80FB68BC
:104B100093F84130DBB2202B40F0FD803B6A002B44
:104B200002D0BB8C002B05D1FB684FF400725A6495
:104B30000123F1E0FB6893F84030012B01D10223FF
:104B4000EAE0FB68012283F84020FFF757F978611B
:104B50007B690093192301224FF40041F86800F0AB
:104B6000D1FA0346002B01D00123D5E0FB682222B5
:104B700083F84120FB68402283F84220FB68002232
:104B80005A64FB683A6A5A62FB68BA8C5A85FB68B9
:104B900000225A63F8883A8979897B690193BB6A54
:104BA00000930346F86800F035FA0346002B05D061
:104BB000FB68002283F840200123ADE0FB685B8D99
:104BC0009BB2FF2B0ED9FB68FF221A85FB681B8D59
:104BD000DAB27989524B00934FF08073F86800F095
:104BE000B3FB0FE0FB685B8D9AB2FB681A85FB682C
:104BF0001B8DDAB279894A4B00934FF00073F86845
:104C000000F0A2FB7B690093BB6A00220421F868D4
:104C100000F078FA0346002B01D001237CE0FB680A
:104C20005B6AFA681268526AD2B21A70FB685B6AF1
:104C30005A1CFB685A62FB681B8D013B9AB2FB68E9
:104C40001A85FB685B8D9BB2013B9AB2FB685A8563
:104C5000FB685B8D9BB2002B34D0FB681B8D002B57
:104C600030D17B690093BB6A00228021F86800F094
:104C700049FA0346002B01D001234DE0FB685B8D10
:104C80009BB2FF2B0ED9FB68FF221A85FB681B8D98
:104C9000DAB27989002300934FF08073F86800F04E
:104CA00053FB0FE0FB685B8D9AB2FB681A85FB68CB
:104CB0001B8DDAB27989002300934FF00073F868F6
:104CC00000F042FBFB685B8D9BB2002B9AD17A69A6
:104CD000B96AF86800F096FA0346002B01D0012368
:104CE0001AE0FB681B682022DA61FB681A68FB681F
:104CF0001B6859680B4B0B405360FB68202283F8FC
:104D00004120FB68002283F84220FB68002283F8E0
:104D10004020002300E0022318461837BD4680BD1E
:104D20000024008000E800FE80B58AB002AFF86081
:104D30007A603B600B467B8100237B61FB6893F8C4
:104D40004130DBB2202B40F0F180FB681B689B698F
:104D500003F40043B3F5004F01D10223E7E0FB6801
:104D600093F84030012B01D10223E0E0FB680122DF
:104D700083F84020FB68242283F84120FB6800224E
:104D80005A64FB681A68FB68DB68012B07D17B89D2
:104D9000C3F3090343F0007343F4005304E07B8939
:104DA000C3F3090343F420535360FFF727F8B861B6
:104DB000FB681B689B6903F02003202B0CBF0123B9
:104DC0000023DBB2FB77FB681B689B6903F01003D1
:104DD000102B0CBF01230023DBB2BB7734E03B6810
:104DE000B3F1FF3F1AD0FFF709F80246BB69D21AA8
:104DF0003B689A4202D83B68002B0FD1FB68202207
:104E000083F84120FB685B6C43F02002FB685A6426
:104E1000FB68002283F84020012388E0FB681B68C0
:104E20009B6903F02003202B0CBF01230023DBB27E
:104E3000FB77FB681B689B6903F01003102B0CBF0A
:104E400001230023DBB2BB77FB7F002B02D1BB7FAA
:104E5000002BC4D0FB681B689B6903F01003102B68
:104E60001AD0BB6900933B6800222021F86800F04B
:104E700049F90346002B01D0012358E0FB681B6869
:104E80002022DA61FB68202283F84120FB6800229F
:104E900083F8402000234AE0BB6900933B6800226E
:104EA0002021F86800F02EF90346002B01D00123E1
:104EB0003DE0FB681B681022DA61FB681B6820225A
:104EC000DA617A697B689A4218D1FB681B68FA68D4
:104ED0001268526842F480425A60BB6900933B6892
:104EE00000222021F86800F00DF90346002B01D0C4
:104EF00001231CE0FB681B682022DA617B69013317
:104F00007B617A697B689A42FFF43BAFFB682022A1
:104F100083F84120FB685B6C43F02002FB685A6415
:104F2000FB68002283F84020012300E0022318469A
:104F30002037BD4680BD80B584B000AF78607B6807
:104F40001B689B69FB607B681B681B68BB607B6898
:104F50005B6B002B05D07B685B6BBA68F96878687F
:104F6000984700BF1037BD4680BD000080B586B0B1
:104F700002AFF860084611461A4603467B810B468D
:104F80003B811346FB80FB88DAB27989204B009382
:104F90004FF08073F86800F0D7F9FA69B969F868DA
:104FA00000F0F0F80346002B01D001232CE0FB8831
:104FB000012B05D1FB681B683A89D2B29A6215E0D1
:104FC000FB681B683A89120A92B2D2B29A62FA69F5
:104FD000B969F86800F0D6F80346002B01D0012328
:104FE00012E0FB681B683A89D2B29A62FB690093AF
:104FF000BB6900228021F86800F084F80346002B8A
:1050000001D0012300E0002318461037BD4680BDC3
:105010000020008080B586B002AFF86008461146D7
:105020001A4603467B810B463B811346FB80FB8877
:10503000DAB27989204B00930023F86800F084F9F4
:10504000FA69B969F86800F09DF80346002B01D0B1
:1050500001232CE0FB88012B05D1FB681B683A89F2
:10506000D2B29A6215E0FB681B683A89120A92B2C2
:10507000D2B29A62FA69B969F86800F083F8034617
:10508000002B01D0012312E0FB681B683A89D2B2E1
:105090009A62FB690093BB6900224021F86800F026
:1050A00031F80346002B01D0012300E0002318460D
:1050B0001037BD4680BD00BF0020008080B483B0A3
:1050C00000AF78607B681B689B6903F00203022BCA
:1050D00003D17B681B6800229A627B681B689B690E
:1050E00003F00103012B07D07B681B687A68126804
:1050F000926942F001029A6100BF0C37BD465DF82B
:10510000047B704780B584B000AFF860B9603B6045
:105110001346FB7122E03B68B3F1FF3F1ED0FEF760
:105120006DFE0246BB69D21A3B689A4202D83B68C0
:10513000002B13D1FB685B6C43F02002FB685A64C0
:10514000FB68202283F84120FB68002283F842207C
:10515000FB68002283F8402001230FE0FB681B68F6
:105160009A69BB681A40BB689A420CBF01230023AE
:10517000DBB21A46FB799A42CDD00023184610378D
:10518000BD4680BD80B584B000AFF860B9607A607C
:105190002CE07A68B968F86800F070F80346002BD4
:1051A00001D001232AE0BB68B3F1FF3F1ED0FEF718
:1051B00025FE02467B68D21ABB689A4202D8BB68B9
:1051C000002B13D1FB685B6C43F02002FB685A6430
:1051D000FB68202283F84120FB68002283F84220EC
:1051E000FB68002283F84020012307E0FB681B686E
:1051F0009B6903F00203022BCBD100231846103722
:10520000BD4680BD80B584B000AFF860B9607A60FB
:1052100028E07A68B968F86800F030F80346002B97
:1052200001D0012326E0FEF7E9FD02467B68D21A91
:10523000BB689A4202D8BB68002B13D1FB685B6C39
:1052400043F02002FB685A64FB68202283F8412067
:10525000FB68002283F84220FB68002283F840208C
:10526000012307E0FB681B689B6903F02003202BE8
:10527000CFD1002318461037BD4680BD80B584B01D
:1052800000AFF860B9607A60FB681B689B6903F047
:105290001003102B51D122E0BB68B3F1FF3F1ED0A9
:1052A000FEF7ACFD02467B68D21ABB689A4202D870
:1052B000BB68002B13D1FB685B6C43F02002FB68DA
:1052C0005A64FB68202283F84120FB68002283F89F
:1052D0004220FB68002283F8402001232EE0FB6877
:1052E0001B689B6903F02003202BD5D1FB681B684A
:1052F0001022DA61FB681B682022DA61F868FFF788
:10530000DDFEFB681A68FB681B6859680D4B0B4093
:105310005360FB685B6C43F00402FB685A64FB68F3
:10532000202283F84120FB68002283F84220FB689A
:10533000002283F84020012300E0002318461037A4
:10534000BD4680BD00E800FE80B485B000AFF860C7
:105350007B600B467B8113467B72FB681A68FB6897
:105360001B685968BB695B0D03F480600B4B0343FA
:10537000DB4319407B89C3F309007B7A1B0403F4E8
:105380007F0318437B681843BB6903430B43536097
:1053900000BF1437BD465DF8047B7047FF63FF0311
:1053A00080B483B000AF786039607B6893F8413097
:1053B000DBB2202B38D17B6893F84030012B01D130
:1053C000022332E07B68012283F840207B6824229C
:1053D00083F841207B681B687A681268126822F0A3
:1053E00001021A607B681B687A681268126822F4EE
:1053F00080521A607B681B687A68126811683A6884
:105400000A431A607B681B687A681268126842F067
:1054100001021A607B68202283F841207B68002209
:1054200083F84020002300E0022318460C37BD46D5
:105430005DF8047B704780B485B000AF7860396058
:105440007B6893F84130DBB2202B39D17B6893F82D
:105450004030012B01D1022333E07B68012283F825
:1054600040207B68242283F841207B681B687A688F
:105470001268126822F001021A607B681B681B68C0
:10548000FB60FB6823F47063FB603B681B02FA68F7
:105490001343FB607B681B68FA681A607B681B68B3
:1054A0007A681268126842F001021A607B68202252
:1054B00083F841207B68002283F84020002300E02D
:1054C000022318461437BD465DF8047B7047000080
:1054D00080B5ADF5007D00AF3B1D18603B1D1B681E
:1054E000002B02D1012300F0F4BE3B1D1B681B689A
:1054F00003F00103002B00F06A81B34B5B6803F0FB
:105500000C03042B0CD0B04B5B6803F00C03082B8E
:1055100059D1AD4B5B6803F48033B3F5803F52D172
:105520004FF40033C7F8F031D7F8F03193FAA3F312
:10553000C7F8EC31D7F8EC31B3FA83F3DBB25B098F
:10554000DBB243F00103DBB2012B02D19E4B1B689F
:1055500015E04FF40033C7F8E831D7F8E83193FA93
:10556000A3F3C7F8E4314FF40033C7F8E031D7F8BC
:10557000E03193FAA3F3C7F8DC31934B5B6A4FF445
:105580000032C7F8D821D7F8D82192FAA2F2C7F88A
:10559000D421D7F8D421B2FA82F2D2B242F020025A
:1055A000D2B202F01F02012101FA02F21340002BD5
:1055B00000F00C813B1D1B685B68002B40F00681EE
:1055C000012300F086BE3B1D1B685B68B3F5803F7E
:1055D00006D17D4A7C4B1B6843F48033136030E076
:1055E0003B1D1B685B68002B0CD1774A764B1B6810
:1055F00023F480331360744A734B1B6823F48023B5
:1056000013601EE03B1D1B685B68B3F5A02F0CD137
:105610006D4A6D4B1B6843F4802313606A4A6A4BE2
:105620001B6843F4803313600BE0674A664B1B68CA
:1056300023F480331360644A634B1B6823F4802394
:1056400013606149604BDB6A23F00F023B1D1B684E
:105650009B681343CB623B1D1B685B68002B59D0D2
:10566000FEF7CCFBC7F8F8010AE0FEF7C7FB0246DD
:10567000D7F8F831D31A642B02D9032300F029BEDE
:105680004FF40033C7F8D031D7F8D03193FAA3F3F1
:10569000C7F8CC31D7F8CC31B3FA83F3DBB25B096E
:1056A000DBB243F00103DBB2012B02D1464B1B6896
:1056B00015E04FF40033C7F8C831D7F8C83193FA72
:1056C000A3F3C7F8C4314FF40033C7F8C031D7F89B
:1056D000C03193FAA3F3C7F8BC313B4B5B6A4FF47C
:1056E0000032C7F8B821D7F8B82192FAA2F2C7F869
:1056F000B421D7F8B421B2FA82F2D2B242F0200239
:10570000D2B202F01F02012101FA02F21340002B73
:10571000ABD05CE0FEF772FBC7F8F8010AE0FEF7D9
:105720006DFB0246D7F8F831D31A642B02D9032354
:1057300000F0CFBD4FF40033C7F8B031D7F8B03127
:1057400093FAA3F3C7F8AC31D7F8AC31B3FA83F3CB
:10575000DBB25B09DBB243F00103DBB2012B02D108
:10576000194B1B6815E04FF40033C7F8A831D7F880
:10577000A83193FAA3F3C7F8A4314FF40033C7F864
:10578000A031D7F8A03193FAA3F3C7F89C310E4BA0
:105790005B6A4FF40032C7F89821D7F8982192FA43
:1057A000A2F2C7F89421D7F89421B2FA82F2D2B2C9
:1057B00042F02002D2B202F01F02012101FA02F2ED
:1057C0001340002BABD102E00010024000BF3B1D94
:1057D0001B681B6803F00203002B00F06F81D04BA5
:1057E0005B6803F00C03002B0BD0CD4B5B6803F020
:1057F0000C03082B6CD1CA4B5B6803F48033002B7D
:1058000066D10223C7F89031D7F8903193FAA3F309
:10581000C7F88C31D7F88C31B3FA83F3DBB25B096C
:10582000DBB243F00103DBB2012B02D1BC4B1B689E
:1058300013E00223C7F88831D7F8883193FAA3F32D
:10584000C7F884310223C7F88031D7F8803193FA42
:10585000A3F3C7F87C31B24B5B6A0222C7F8782108
:10586000D7F8782192FAA2F2C7F87421D7F87421F8
:10587000B2FA82F2D2B242F02002D2B202F01F0299
:10588000012101FA02F21340002B07D03B1D1B68D7
:105890001B69012B02D0012300F01BBDA048A04BC7
:1058A0001B6823F0F8023B1D1B685B69F821C7F8F1
:1058B0007011D7F8701191FAA1F1C7F86C11D7F8EF
:1058C0006C11B1FA81F1C9B28B4013430360F5E06A
:1058D0003B1D1B681B69002B00F085800123C7F866
:1058E0006831D7F8683193FAA3F3C7F86431D7F871
:1058F0006431B3FA83F3DBB203F1845303F5841309
:105900009B001A4601231360FEF778FAC7F8F801E6
:105910000AE0FEF773FA0246D7F8F831D31A022BE1
:1059200002D9032300F0D5BC0223C7F86031D7F8B1
:10593000603193FAA3F3C7F85C31D7F85C31B3FA5E
:1059400083F3DBB25B09DBB243F00103DBB2012B73
:1059500002D1734B1B6813E00223C7F85831D7F804
:10596000583193FAA3F3C7F854310223C7F85031E2
:10597000D7F8503193FAA3F3C7F84C31684B5B6A00
:105980000222C7F84821D7F8482192FAA2F2C7F8B4
:105990004421D7F84421B2FA82F2D2B242F0200276
:1059A000D2B202F01F02012101FA02F21340002BD1
:1059B000AFD05B485A4B1B6823F0F8023B1D1B68B5
:1059C0005B69F821C7F84011D7F8401191FAA1F1AD
:1059D000C7F83C11D7F83C11B1FA81F1C9B28B403C
:1059E000134303606AE00123C7F83831D7F8383130
:1059F00093FAA3F3C7F83431D7F83431B3FA83F309
:105A0000DBB203F1845303F584139B001A46002391
:105A10001360FEF7F3F9C7F8F8010AE0FEF7EEF9B4
:105A20000246D7F8F831D31A022B02D9032300F02B
:105A300050BC0223C7F83031D7F8303193FAA3F3C2
:105A4000C7F82C31D7F82C31B3FA83F3DBB25B09FA
:105A5000DBB243F00103DBB2012B02D1304B1B68F8
:105A600013E00223C7F82831D7F8283193FAA3F3BB
:105A7000C7F824310223C7F82031D7F8203193FA30
:105A8000A3F3C7F81C31264B5B6A0222C7F8182122
:105A9000D7F8182192FAA2F2C7F81421D7F81421E6
:105AA000B2FA82F2D2B242F02002D2B202F01F0267
:105AB000012101FA02F21340002BAFD13B1D1B68FC
:105AC0001B6803F00803002B00F0DA803B1D1B6805
:105AD0009B69002B69D00123C7F81031D7F810312A
